:020000040800F2
:1000000000000120611A0008F5190008FB1900081A
:10001000011A0008071A00080D1A00080000000065
:10002000000000000000000000000000131A00089B
:10003000211A0008000000002F1A00088915000886
:10004000B11A0008B11A0008B11A0008B11A000864
:10005000B11A0008B11A0008ED0A0008110B0008D7
:10006000B11A0008B11A0008B11A0008B11A000844
:10007000B11A0008B11A0008B11A0008B11A000834
:10008000B11A0008B11A0008B11A000800000000F7
:10009000000000000000000000000000B11A00088D
:1000A000B11A0008B11A0008B11A0008B11A000804
:1000B000B11A0008B11A0008B11A0008B11A0008F4
:1000C000B11A0008B11A0008B11A00083915000861
:1000D0004D150008F91800080D190008000000006F
:1000E000B11A0008B11A0008B11A00080000000097
:1000F000000000000000000000000000B11A00082D
:1001000000000000B11A0008B11A000861150008CB
:1001100000000000000000000000000000000000DF
:10012000B11A0008B11A0008B11A0008B11A000883
:10013000B11A0008000000000000000000000000EC
:10014000000000000000000000000000B11A0008DC
:10015000B11A0008B11A0008B11A000821190008E4
:10016000B11A0008B11A00080000000000000000E9
:10017000000000000000000000000000000000007F
:1001800000000000B11A000800000000000000009C
:0401900075150008D9
:1001940010B5054C237833B9044B13B10448AFF3BD
:1001A40000800123237010BD000000200000000027
:1001B400FC1A000808B5034B1BB103490348AFF30D
:1001C400008008BD0000000004000020FC1A0008A4
:1001D40080B582B000AF03460A46FB711346BB806C
:1001E400FB79062B00F2488101A252F823F000BFEC
:1001F400110200085502000899020008DD020008F7
:1002040043030008A9030008170400080021002084
:1002140001F050F80421032001F04CF802220921D6
:10022400002000F085FC07220921002000F0A8FE30
:1002340002220A21002000F07BFC07220A21002070
:1002440000F09EFEBB881946002001F0A5F914E1D8
:100254000021002001F02EF81121022001F02AF8DB
:1002640002220121002000F063FC0722012100206A
:1002740000F086FE02220221002000F059FC072231
:100284000221002000F07CFEBB881946012001F009
:1002940083F9F2E00021002001F00CF8052103208D
:1002A40001F008F802220B21002000F041FC082292
:1002B4000B21002000F064FE02220C21002000F03B
:1002C40037FC08220C21002000F05AFEBB88194696
:1002D400022001F061F9D0E00021002000F0EAFFE3
:1002E4000C21032000F0E6FF02220421002000F08C
:1002F4001FFC05220421002000F042FE02220521F9
:10030400002000F015FC05220521002000F038FE35
:1003140002220621002000F00BFC05220621002009
:1003240000F02EFE02220721002000F001FC05222D
:100334000721002000F024FE01F008F89DE00121CF
:10034400002000F0B7FF0E21022000F0B3FF0222CC
:100354000C21012000F0ECFB05220C21012000F00F
:100364000FFE02220D21012000F0E2FB05220D21E7
:10037400012000F005FE02220E21012000F0D8FB2E
:1003840005220E21012000F0FBFD02220F21012095
:1003940000F0CEFB05220F21012000F0F1FD00F05A
:1003A400F3FF6AE00021002000F084FF0121002017
:1003B40000F080FF0F21022000F07CFF02220F21B9
:1003C400002000F0B5FB06220F21002000F0D8FD2C
:1003D40002220321012000F0ABFB062203210120AD
:1003E40000F0CEFD02220421012000F0A1FB062230
:1003F4000421012000F0C4FD02220521012000F0A7
:1004040097FB06220521012000F0BAFD00F0D6FF7B
:1004140033E00421002000F04DFF0D21032000F003
:1004240049FF02220B21042000F082FB05220B214C
:10043400042000F0A5FD02220C21042000F078FB2A
:1004440005220C21042000F09BFD02220D21042032
:1004540000F06EFB05220D21042000F091FD022224
:100464000E21042000F064FB05220E21042000F07C
:1004740087FD00F0BDFF00E000BF00BF0837BD46A8
:1004840080BD00BF80B584B000AF396011461A4604
:100494000346FB710B46BB7113467B710023FB7350
:1004A400FB79062B3DD801A252F823F0CD040008B5
:1004B400CD040008CD040008EF040008FD04000882
:1004C4000B050008190500083B7E002B06D0BA79FD
:1004D400FB793968184601F03DF923E0FB791846A9
:1004E40001F0A2F90346FB731CE07B79184600F087
:1004F40099FF0346FB7315E07B79184600F0B4FFBF
:100504000346FB730EE07B79184600F0CFFF0346E9
:10051400FB7307E07B79184600F0EAFF0346FB73A0
:1005240000E000BFFB7B18461037BD4680BD00BF0E
:1005340080B500AF01220121002000F0F9FA012268
:100544000221002000F0F4FA01220321002000F02F
:10055400EFFA00BF80BD80B582B000AF0346FB71E7
:10056400FB79022B26D0022B34DC002B02D0012B8A
:1005740010D02FE001220121002000F02DFC0022E8
:100584000221002000F028FC01220321002000F0B9
:1005940023FC20E000220121002000F01DFC0122A8
:1005A4000221002000F018FC01220321002000F0A9
:1005B40013FC10E000220121002000F00DFC0022B9
:1005C4000221002000F008FC00220321002000F09A
:1005D40003FC00E000BF00BF0837BD4680BD80B506
:1005E40082B000AF03460A46FB711346BB71FB7928
:1005F4001946002000F05EFEB979FB790122184605
:1006040000F096FA00BF0837BD4680BD80B582B0C1
:1006140000AF03460A46FB711346BB71B979FB79F7
:100624000122184600F0D8FB00BF0837BD4680BD44
:1006340080B582B000AF03460A46FB711346BB7116
:10064400B979FB790022184600F0C6FB00BF0837D1
:10065400BD4680BD90B583B000AF04460846114640
:100664001A462346FB710346BB710B467B71134646
:100674003B71FB791946002000F01CFE0E2103207B
:1006840000F018FEB979FB790022184600F050FA00
:10069400B9797A79FB79184600F0C2FA052000F09E
:1006A40073FDBB79042B0FD8BB790633DBB2184634
:1006B40000F04AFDBB790633DBB297F82020397F7E
:1006C400184600F07DFD0EE0BB790E33DBB2184610
:1006D40000F03AFDBB790E33DBB297F82020397F66
:1006E400184600F06DFDBB79184600F031F83A79F0
:1006F400BB791146184600F043F8FB79052B04D169
:10070400FB790233FB71FB7900E0FB79BA79194676
:10071400104600F07BF8BB79B969184600F0C6F9B9
:1007240000BF0C37BD4690BD80B582B000AF034614
:100734000A46FB711346BB71BA79FB791146184618
:1007440000F0DEFA034618460837BD4680BD0000B7
:1007540080B483B000AF0346FB71084B1B68FA7981
:10076400012101FA02F21146044A0B43136000BF4F
:100774000C37BD465DF8047B704700BF003C014068
:1007840080B483B000AF03460A46FB711346BB71C5
:10079400BB79022B1CD0022B2FDC002B02D0012BA7
:1007A4000BD02AE0184B9B68FA79012101FA02F276
:1007B4001146154A0B43936020E0134BDB68FA792A
:1007C400012101FA02F211460F4A0B43D36015E0EE
:1007D4000D4B9B68FA79012101FA02F211460A4A8B
:1007E4000B439360084BDB68FA79012101FA02F2AA
:1007F4001146054A0B43D36000E000BF00BF0C372D
:10080400BD465DF8047B7047003C014080B485B070
:1008140000AF03460A46FB711346BB71FB799B0884
:10082400FB73FB7903F00303BB73FB7B032B00F225
:10083400338101A252F823F04D080008E1080008B2
:1008440075090008090A0008BB7B032B44D801A2E0
:1008540052F823F06908000883080008A10800087A
:10086400BF080008904B1B688F4A23F00F031360E6
:100874008D4B1A68BB798C4913430B602DE08A4B6E
:100884001B68894A23F0F0031360874B1B68BA790D
:1008940012011146844A0B4313601EE0824B1B680D
:1008A400814A23F4706313607F4B1B68BA79120288
:1008B40011467D4A0B4313600FE07B4B1B687A4A59
:1008C40023F470431360784B1B68BA791203114602
:1008D400754A0B43136000E000BFDEE0BB7B032BD3
:1008E40044D801A252F823F0FD08000817090008B3
:1008F40035090008530900086B4B5B686A4A23F00A
:100904000F035360684B5A68BB79674913434B60C4
:100914002DE0654B5B68644A23F0F0035360624B3F
:100924005B68BA79120111465F4A0B4353601EE0BB
:100934005D4B5B685C4A23F4706353605A4B5B689D
:10094400BA7912021146584A0B4353600FE0564BD2
:100954005B68554A23F470435360534B5B68BA7920
:1009640012031146504A0B43536000E000BF94E069
:10097400BB7B032B44D801A252F823F09109000851
:10098400AB090008C9090008E7090008464B9B6841
:10099400454A23F00F039360434B9A68BB7942495D
:1009A40013438B602DE0404B9B683F4A23F0F003D8
:1009B40093603D4B9B68BA79120111463A4A0B4346
:1009C40093601EE0384B9B68374A23F4706393604E
:1009D400354B9B68BA7912021146334A0B43936034
:1009E4000FE0314B9B68304A23F4704393602E4BE5
:1009F4009B68BA79120311462B4A0B43936000E0BB
:100A040000BF4AE0BB7B032B44D801A252F823F079
:100A1400250A00083F0A00085D0A00087B0A00084E
:100A2400214BDB68204A23F00F03D3601E4BDA68A6
:100A3400BB791D491343CB602DE01B4BDB681A4A7D
:100A440023F0F003D360184BDB68BA791201114626
:100A5400154A0B43D3601EE0134BDB68124A23F4A0
:100A64007063D360104BDB68BA79120211460E4AE8
:100A74000B43D3600FE00C4BDB680B4A23F4704349
:100A8400D360094BDB68BA7912031146064A0B435B
:100A9400D36000E000BF00E000BF00BF1437BD46D4
:100AA4005DF8047B704700BF0838014080B483B010
:100AB40000AF03463960FB71FB79002B02D0012B98
:100AC40004D007E0064A3B68136003E0054A3B682C
:100AD400136000BF00BF0C37BD465DF8047B704750
:100AE4001C0000202000002080B500AF054B1B68CF
:100AF4009847054B5B69044A43F00103536100BF07
:100B040080BD00BF1C000020003C014080B500AF48
:100B1400054B1B689847054B5B69044A43F0020385
:100B2400536100BF80BD00BF20000020003C014095
:100B340080B483B000AF0346FB710B46BB71134610
:100B44007B71FB79052B57D801A252F823F000BF23
:100B54006D0B0008850B00089D0B0008B50B000801
:100B6400CD0B0008E50B0008274B1B687979BA798F
:100B7400520001FA02F21146234A0B4313603CE08F
:100B8400224B1B687979BA79520001FA02F21146B4
:100B94001E4A0B43136030E01D4B1B687979BA7908
:100BA400520001FA02F21146194A0B43136024E081
:100BB400184B1B687979BA79520001FA02F211468E
:100BC400144A0B43136018E0134B1B687979BA7904
:100BD400520001FA02F211460F4A0B4313600CE073
:100BE4000E4B1B687979BA79520001FA02F2114668
:100BF4000A4A0B43136000E000BF00BF0C37BD4638
:100C04005DF8047B704700BF00000240000402400E
:100C140000080240000C024000100240001C024088
:100C240080B485B000AF0346B9607A60FB73FB7B88
:100C3400052B51D801A252F823F000BF590C00082B
:100C44006F0C0008850C00089B0C0008B10C000810
:100C5400C70C0008244BDA68BB685B00796801FAAA
:100C640003F321491343CB6037E0204BDA68BB68B8
:100C74005B00796801FA03F31C491343CB602CE051
:100C84001B4BDA68BB685B00796801FA03F3184907
:100C94001343CB6021E0174BDA68BB685B007968CB
:100CA40001FA03F313491343CB6016E0124BDA68DD
:100CB400BB685B00796801FA03F30F491343CB6007
:100CC4000BE00E4BDA68BB685B00796801FA03F34A
:100CD4000A491343CB6000E000BF00BF1437BD4690
:100CE4005DF8047B704700BF00000240000402402E
:100CF40000080240000C024000100240001C0240A8
:100D040080B485B000AF03460A46FB711346BB713D
:100D14000023FB73FB79052B4AD801A252F823F078
:100D24003D0D0008510D0008650D0008790D0008FF
:100D34008D0D0008A10D0008214B1A69BB7922FA18
:100D440003F3DBB203F00103FB7332E01D4B1A69BA
:100D5400BB7922FA03F3DBB203F00103FB7328E04F
:100D6400194B1A69BB7922FA03F3DBB203F00103CE
:100D7400FB731EE0154B1A69BB7922FA03F3DBB24D
:100D840003F00103FB7314E0114B1A69BB7922FAD7
:100D940003F3DBB203F00103FB730AE00D4B1A69A2
:100DA400BB7922FA03F3DBB203F00103FB7300E027
:100DB40000BFFB7B18461437BD465DF8047B7047C3
:100DC400000002400004024000080240000C0240FF
:100DD40000100240001C024080B483B000AF034600
:100DE400FB710B46BB7113467B717B79012B55D18B
:100DF400FB79052B00F2AC8001A252F823F000BF6E
:100E04001D0E0008330E0008490E00085F0E00088E
:100E1400750E00088B0E0008524B5B69BA790121EC
:100E240001FA02F211464F4A0B43536193E04E4BD1
:100E34005B69BA79012101FA02F211464A4A0B436D
:100E4400536188E0494B1B68BA79012101FA02F227
:100E54001146464A0B4313607DE0454B5B69BA7902
:100E6400012101FA02F21146414A0B43536172E037
:100E7400404B5B69BA79012101FA02F211463D4AFD
:100E84000B43536167E03C4B5B69BA79012101FA7A
:100E940002F21146384A0B4353615CE0FB79052B9F
:100EA40058D801A252F823F0C50E0008DD0E000840
:100EB400F50E00080D0F0008250F00083D0F00086F
:100EC400284B5B69BA79012101FA02F2D243114637
:100ED400244A0B4053613EE0234B5B69BA790121FC
:100EE40001FA02F2D24311461F4A0B40536132E029
:100EF400224B5B69BA79012101FA02F2D24311460D
:100F04001E4A0B40536126E0194B5B69BA790121F3
:100F140001FA02F2D2431146154A0B4053611AE01A
:100F2400144B5B69BA79012101FA02F2D2431146EA
:100F3400104A0B4053610EE00F4B5B69BA790121F3
:100F440001FA02F2D24311460B4A0B40536102E00C
:100F540000BF00E000BF00BF0C37BD465DF8047B56
:100F6400704700BF00000240000402401408024021
:100F7400000C024000100240001C02400008024025
:100F840080B483B000AF0346FB710B46BB711346BC
:100F94007B71BB79072B5BD8FB79052B00F2BE80F4
:100FA40001A252F823F000BFC50F0008DD0F0008AE
:100FB400F50F00080D100008251000083D1000086A
:100FC4005B4B1B6A7979BA79920001FA02F21146F5
:100FD400574A0B431362A4E0564B1B6A7979BA79DA
:100FE400920001FA02F21146524A0B43136298E04E
:100FF400514B1B6A7979BA79920001FA02F21146CF
:101004004D4A0B4313628CE04C4B1B6A7979BA79D5
:10101400920001FA02F21146484A0B43136280E03F
:10102400474B1B6A7979BA79920001FA02F21146A8
:10103400434A0B43136274E0424B1B6A7979BA79D1
:10104400920001FA02F211463E4A0B43136268E031
:10105400FB79052B64D801A252F823F0791000081B
:1010640095100008B1100008CD100008E910000820
:10107400051100082E4B5B6A7979BA7902F00702F0
:10108400920001FA02F21146294A0B43536248E0E6
:10109400284B5B6A7979BA7902F00702920001FA67
:1010A40002F21146234A0B4353623AE0224B5B6A35
:1010B4007979BA7902F00702920001FA02F2114634
:1010C4001D4A0B4353622CE01C4B5B6A7979BA7955
:1010D40002F00702920001FA02F21146174A0B438A
:1010E40053621EE0164B5B6A7979BA7902F0070203
:1010F400920001FA02F21146114A0B43536210E0C6
:10110400104B5B6A7979BA7902F00702920001FA0E
:1011140002F211460B4A0B43536202E000BF00E0A7
:1011240000BF00BF0C37BD465DF8047B704700BFAD
:10113400000002400004024000080240000C02408B
:1011440000100240001C024090B482B000AF03467D
:10115400FB710C4AFB795B09D8B2034652F8233081
:10116400FA7902F01F02012101FA02F21446054A3B
:101174000146234342F8213000BF0837BD4690BCE6
:10118400704700BF00E100E080B483B000AF0346C5
:10119400FB71FB791B0243F0BF6343F400331A462F
:1011A400054B1A60054A044B1B68136000BF0C37DB
:1011B400BD465DF8047B7047240000200CED00E080
:1011C40080B485B000AF0346FB710B46BB71134678
:1011D4007B710023FB73214B1B68033B042B2ED82C
:1011E40001A252F823F000BF011200080712000800
:1011F400191200082B1200083D120008BB79FB737A
:101204001DE0BB795B005AB297F9053013435BB21A
:10121400FB7314E0BB799B005AB297F90530134372
:101224005BB2FB730BE0BB79DB005AB297F9053074
:1012340013435BB2FB7302E07B79FB7300BF084985
:10124400FB79FA7B1201D2B20B4483F8002300BF6E
:101254001437BD465DF8047B704700BF24000020AE
:1012640000E100E080B400AF114B1B68104A23F486
:10127400802313600E4B9B680D4A43F00103936077
:101284000B4B1B680A4A43F480331360084B1B68FA
:10129400074A43F001031360054B1B68044A43F0FB
:1012A4008073136000BFBD465DF8047B704700BFC8
:1012B4000038024080B483B000AF03460A46FB7195
:1012C4001346BB71FB79032B36D801A252F823F0E5
:1012D400E5120008FB120008111300082713000888
:1012E400194B1B6BBA79012101FA02F21146164A15
:1012F4000B43136321E0144B5B6BBA79012101FAB0
:1013040002F21146104A0B43536316E00E4B1B6C5A
:10131400BA79012101FA02F211460B4A0B43136414
:101324000BE0094B5B6CBA79012101FA02F2114618
:10133400054A0B43536400E000BF00BF0C37BD46B1
:101344005DF8047B704700BF0038024080B400AFF2
:101354000C4A138843F0020313800A4A138843F0AB
:1013640001031380074A1388012161F3C503138025
:10137400044A138843F04003138000BFBD465DF860
:10138400047B70470030014080B400AF0A4A1388E0
:1013940043F002031380084A138843F001031380C7
:1013A400054A1388012161F3C503138000BFBD46BC
:1013B4005DF8047B704700BF0038004080B400AF84
:1013C4000A4A138843F002031380084A138843F03F
:1013D40001031380054A1388012161F3C5031380B7
:1013E40000BFBD465DF8047B704700BF003C004071
:1013F40080B400AF0A4A138843F002031380084AFA
:10140400138843F001031380054A1388012161F313
:10141400C503138000BFBD465DF8047B704700BF61
:101424000034014080B483B000AF0346FB7100BFB9
:101434000C4B9B6803F08003002BF9D1094AFB791C
:10144400D36000BF074B9B6803F08003002BF9D1E6
:10145400044BDB68DBB218460C37BD465DF8047BF1
:10146400704700BF0030014080B483B000AF034632
:10147400FB7100BF0C4B9B6803F08003002BF9D178
:10148400094AFB79D36000BF074B9B6803F08003D4
:10149400002BF9D1044BDB68DBB218460C37BD4690
:1014A4005DF8047B704700BF0038004080B483B00F
:1014B40000AF0346FB7100BF0C4B9B6803F0800335
:1014C400002BF9D1094AFB79D36000BF074B9B6815
:1014D40003F08003002BF9D1044BDB68DBB2184620
:1014E4000C37BD465DF8047B704700BF003C0040EC
:1014F40080B483B000AF0346FB7100BF0C4B9B6804
:1015040003F08003002BF9D1094AFB79D36000BFB3
:10151400074B9B6803F08003002BF9D1044BDB6875
:10152400DBB218460C37BD465DF8047B704700BF3C
:101534000034014080B500AF024B1B68984700BFE0
:1015440080BD00BF2800002080B500AF024B1B689F
:10155400984700BF80BD00BF2C00002080B500AFBD
:10156400024B1B68984700BF80BD00BF30000020BD
:1015740080B500AF024B1B68984700BF80BD00BF19
:101584003400002080B500AF024B1B68984700BFB1
:1015940080BD00BF3800002080B487B000AF034690
:1015A4000A46FB711346BB80BB881B01654A92FB4C
:1015B400F3F307EE903AF8EEE77AC7ED057AD7ED44
:1015C400057AFCEEE77A17EE903A7B827B8A07EE87
:1015D400903AF8EEE77A97ED057A77EE677AC7EDF9
:1015E400037AD7ED037AB3EE007A67EE877AFCEEDE
:1015F400E77AC7ED007A3B78FB72FB79022B69D05E
:10160400022B00F39880002B02D0012B31D092E002
:101614007B8A1A01FB7A1A434B4B9A604A4AD36875
:101624006FF3CF33D360484AD3686FF30C33D3607E
:10163400454AD3686FF38A23D360434B1B69424AFC
:1016440023F480531361404B1B693F4A23F4005336
:1016540013613D4AD36843F00803D3603A4AD36820
:1016640043F00403D360384AD3686FF34513D3605F
:1016740062E07B8A1A01FB7A1A43344B9A60334A3C
:10168400D3686FF3CF33D360304AD3686FF30C332E
:10169400D3602E4AD3686FF38A23D3602B4B1B6924
:1016A4002A4A23F480531361284B1B69274A23F4E5
:1016B40000531361254AD36843F00803D360234AD7
:1016C400D36843F00403D360204AD36843F0200373
:1016D400D36031E07B8A1A01FB7A1A431C4B9A606F
:1016E4001B4AD3686FF3CF33D360194AD3686FF3BF
:1016F4000C33D360164AD3686FF38A23D360144B38
:101704001B69134A23F480531361114B1B69104A5C
:1017140023F4005313610E4AD36843F00803D360E3
:101724000B4AD36843F00403D360094AD36843F0F7
:101734002003D36000E000BF00BF1C37BD465DF846
:10174400047B70470024F400001001400044004072
:101754000014014080B485B000AF03463960FB71CA
:101764001346BB71FB79022B38D0022B4FDC002BC4
:1017740002D0012B19D04AE00023FB7310E0FB7B5D
:101784003A6813441A78254B5A6000BF234B1B68F0
:10179400C3F3C013DBB2002BF8D0FB7B0133FB7324
:1017A400FA7BBB799A42EAD332E00023BB7310E0A0
:1017B400BB7B3A6813441A78194B5A6000BF184B24
:1017C4001B68C3F3C013DBB2002BF8D0BB7B01331F
:1017D400BB73BA7BBB799A42EAD319E000237B73CB
:1017E40010E07B7B3A6813441A780E4B5A6000BFB2
:1017F4000C4B1B68C3F3C013DBB2002BF8D07B7B0C
:1018040001337B737A7BBB799A42EAD300E000BF51
:1018140000BF1437BD465DF8047B704700100140DB
:10182400004400400014014080B485B000AF03467A
:10183400FB710023FB8100237B73FB79022B3FD0D8
:10184400022B49DC002B0DD0012B22D044E0FB8974
:101854000133FB81FB8942F21072934202D1FF23D0
:101864007B7306E0204B1B68C3F34013DBB2002BF1
:10187400EDD01D4B5B687B737B7B2EE0FB890133D2
:10188400FB81FB8942F21072934202D1FF237B73E6
:1018940006E0164B1B68C3F34013DBB2002BEDD0FC
:1018A400124B5B687B737B7B17E0FB890133FB8105
:1018B400FB8942F21072934202D1FF237B7306E04C
:1018C4000B4B1B68C3F34013DBB2002BEDD0084B6A
:1018D4005B687B737B7B00E0002318461437BD46AE
:1018E4005DF8047B704700BF0010014000440040D5
:1018F4000014014080B500AF024B1B68984700BF3D
:1019040080BD00BF3C00002080B500AF024B1B68C7
:10191400984700BF80BD00BF4000002080B500AFE5
:10192400024B1B68984700BF80BD00BF44000020E5
:1019340080B400AF034B01221A7000BFBD465DF8AE
:10194400047B70474800002080B586B004AF0123B3
:10195400FB71FFF787FC0023029300230193224BC2
:1019640000930123012200210020FEF773FE0421CD
:101974000020FEF734FEFEF7DBFD4FF41651002085
:10198400FEF726FC194B1B78012B11D10223FB71A6
:101994000020FEF7E0FD04210020FEF737FEF91DCC
:1019A40001230093002301220020FEF76BFD10E0C9
:1019B4000123FB710220FEF7CEFD04210020FEF777
:1019C40037FEF91D01230093002301220020FEF7B6
:1019D40059FD00210020FEF7A7FE0346002BD1D0BD
:1019E400024B00221A70CDE7351900084800002088
:1019F40080B400AFFEE780B400AFFEE780B400AF70
:101A0400FEE780B400AFFEE780B400AFFEE780B429
:101A140000AF00BFBD465DF8047B704780B400AFE3
:101A240000BFBD465DF8047B704780B400AF00BFC3
:101A3400BD465DF8047B704780B400AF064BD3F815
:101A44008830054A43F47003C2F8883000BFBD46AD
:101A54005DF8047B704700BF00ED00E0DFF834D090
:101A64000D480E490E4A002302E0D458C4500433F2
:101A7400C4188C42F9D30B4A0B4C002301E01360C9
:101A84000432A242FBD3FFF7D7FF00F011F8FFF7AF
:101A94005BFF7047000001200000002000000020D0
:101AA4001C1B0008000000204C000020FEE7000082
:101AB40070B50D4D0D4C641BA4100026A64209D12F
:101AC4000B4D0C4C00F018F8641BA4100026A64221
:101AD40005D170BD55F8043B98470136EEE755F83B
:101AE400043B98470136F2E7141B0008141B000856
:101AF400141B0008181B0008F8B500BFF8BC08BC8C
:101B04009E467047F8B500BFF8BC08BC9E467047B7
:041B1400B90100080B
:041B1800950100082B
:0400000508001A6174
:00000001FF
