:020000040800F2
:1000000000000120990D00082D0D0008330D000897
:10001000390D00083F0D0008450D000800000000E4
:100020000000000000000000000000004B0D000870
:10003000590D000800000000670D0008F10B0008D2
:10004000E90D0008E90D0008E90D0008E90D0008B8
:10005000E90D0008E90D00086D050008910500088C
:10006000E90D0008E90D0008E90D0008E90D000898
:10007000E90D0008E90D0008E90D0008E90D000888
:10008000E90D0008E90D0008E90D00080000000076
:10009000000000000000000000000000E90D000862
:1000A000E90D0008E90D0008E90D0008E90D000858
:1000B000E90D0008E90D0008E90D0008E90D000848
:1000C000E90D0008E90D0008E90D0008E90D000838
:1000D000E90D0008E90D0008E90D00080000000026
:1000E000E90D0008E90D0008E90D00080000000016
:1000F000000000000000000000000000E90D000802
:1001000000000000E90D0008E90D0008E90D0008F5
:1001100000000000000000000000000000000000DF
:10012000E90D0008E90D0008E90D0008E90D0008D7
:10013000E90D0008000000000000000000000000C1
:10014000000000000000000000000000E90D0008B1
:10015000E90D0008E90D0008E90D0008E90D0008A7
:10016000E90D0008E90D0008000000000000000093
:10017000000000000000000000000000000000007F
:1001800000000000E90D0008000000000000000071
:04019000E90D00086D
:1001940010B5054C237833B9044B13B10448AFF3BD
:1001A40000800123237010BD000000200000000027
:1001B400340E000808B5034B1BB103490348AFF3E1
:1001C400008008BD0000000004000020340E000878
:1001D40080B483B000AF0346FB71084B1B68FA7907
:1001E400012101FA02F21146044A0B43136000BFD5
:1001F4000C37BD465DF8047B704700BF003C0140EE
:1002040080B483B000AF03460A46FB711346BB714A
:10021400BB79022B1CD0022B2FDC002B02D0012B2C
:100224000BD02AE0184B9B68FA79012101FA02F2FB
:100234001146154A0B43936020E0134BDB68FA79AF
:10024400012101FA02F211460F4A0B43D36015E073
:100254000D4B9B68FA79012101FA02F211460A4A10
:100264000B439360084BDB68FA79012101FA02F22F
:100274001146054A0B43D36000E000BF00BF0C37B2
:10028400BD465DF8047B7047003C014080B485B0F6
:1002940000AF03460A46FB711346BB71FB799B080A
:1002A400FB73FB7903F00303BB73FB7B032B00F2AB
:1002B400338101A252F823F0CD0200086103000843
:1002C400F503000889040008BB7B032B44D801A272
:1002D40052F823F0E9020008030300082103000890
:1002E4003F030008904B1B688F4A23F00F031360F1
:1002F4008D4B1A68BB798C4913430B602DE08A4BF4
:100304001B68894A23F0F0031360874B1B68BA7992
:1003140012011146844A0B4313601EE0824B1B6892
:10032400814A23F4706313607F4B1B68BA7912020D
:1003340011467D4A0B4313600FE07B4B1B687A4ADE
:1003440023F470431360784B1B68BA791203114687
:10035400754A0B43136000E000BFDEE0BB7B032B58
:1003640044D801A252F823F07D0300089703000843
:10037400B5030008D30300086B4B5B686A4A23F09B
:100384000F035360684B5A68BB79674913434B604A
:100394002DE0654B5B68644A23F0F0035360624BC5
:1003A4005B68BA79120111465F4A0B4353601EE041
:1003B4005D4B5B685C4A23F4706353605A4B5B6823
:1003C400BA7912021146584A0B4353600FE0564B58
:1003D4005B68554A23F470435360534B5B68BA79A6
:1003E40012031146504A0B43536000E000BF94E0EF
:1003F400BB7B032B44D801A252F823F0110400085C
:100404002B0400084904000867040008464B9B6855
:10041400454A23F00F039360434B9A68BB794249E2
:1004240013438B602DE0404B9B683F4A23F0F0035D
:1004340093603D4B9B68BA79120111463A4A0B43CB
:1004440093601EE0384B9B68374A23F470639360D3
:10045400354B9B68BA7912021146334A0B439360B9
:100464000FE0314B9B68304A23F4704393602E4B6A
:100474009B68BA79120311462B4A0B43936000E040
:1004840000BF4AE0BB7B032B44D801A252F823F0FF
:10049400A5040008BF040008DD040008FB040008EC
:1004A400214BDB68204A23F00F03D3601E4BDA682C
:1004B400BB791D491343CB602DE01B4BDB681A4A03
:1004C40023F0F003D360184BDB68BA7912011146AC
:1004D400154A0B43D3601EE0134BDB68124A23F426
:1004E4007063D360104BDB68BA79120211460E4A6E
:1004F4000B43D3600FE00C4BDB680B4A23F47043CF
:10050400D360094BDB68BA7912031146064A0B43E0
:10051400D36000E000BF00E000BF00BF1437BD4659
:100524005DF8047B704700BF0838014080B483B095
:1005340000AF03463960FB71FB79002B02D0012B1D
:1005440004D007E0064A3B68136003E0054A3B68B1
:10055400136000BF00BF0C37BD465DF8047B7047D5
:100564001C0000202000002080B500AF054B1B6854
:100574009847054B5B69044A43F00103536100BF8C
:1005840080BD00BF1C000020003C014080B500AFCE
:10059400054B1B689847054B5B69044A43F002030B
:1005A400536100BF80BD00BF20000020003C01401B
:1005B40080B483B000AF0346FB710B46BB71134696
:1005C4007B71FB79052B57D801A252F823F000BFA9
:1005D400ED050008050600081D060008350600089C
:1005E4004D06000865060008274B1B687979BA791F
:1005F400520001FA02F21146234A0B4313603CE015
:10060400224B1B687979BA79520001FA02F2114639
:100614001E4A0B43136030E01D4B1B687979BA798D
:10062400520001FA02F21146194A0B43136024E006
:10063400184B1B687979BA79520001FA02F2114613
:10064400144A0B43136018E0134B1B687979BA7989
:10065400520001FA02F211460F4A0B4313600CE0F8
:100664000E4B1B687979BA79520001FA02F21146ED
:100674000A4A0B43136000E000BF00BF0C37BD46BD
:100684005DF8047B704700BF000002400004024094
:1006940000080240000C024000100240001C02400E
:1006A40080B485B000AF0346B9607A60FB73FB7B0E
:1006B400052B51D801A252F823F000BFD906000837
:1006C400EF060008050700081B07000831070008AB
:1006D40047070008244BDA68BB685B00796801FAB5
:1006E40003F321491343CB6037E0204BDA68BB683E
:1006F4005B00796801FA03F31C491343CB602CE0D7
:100704001B4BDA68BB685B00796801FA03F318498C
:100714001343CB6021E0174BDA68BB685B00796850
:1007240001FA03F313491343CB6016E0124BDA6862
:10073400BB685B00796801FA03F30F491343CB608C
:100744000BE00E4BDA68BB685B00796801FA03F3CF
:100754000A491343CB6000E000BF00BF1437BD4615
:100764005DF8047B704700BF0000024000040240B3
:1007740000080240000C024000100240001C02402D
:1007840080B485B000AF03460A46FB711346BB71C3
:100794000023FB73FB79052B4AD801A252F823F0FE
:1007A400BD070008D1070008E5070008F90700089D
:1007B4000D08000821080008214B1A69BB7922FAA8
:1007C40003F3DBB203F00103FB7332E01D4B1A6940
:1007D400BB7922FA03F3DBB203F00103FB7328E0D5
:1007E400194B1A69BB7922FA03F3DBB203F0010354
:1007F400FB731EE0154B1A69BB7922FA03F3DBB2D3
:1008040003F00103FB7314E0114B1A69BB7922FA5C
:1008140003F3DBB203F00103FB730AE00D4B1A6927
:10082400BB7922FA03F3DBB203F00103FB7300E0AC
:1008340000BFFB7B18461437BD465DF8047B704748
:10084400000002400004024000080240000C024084
:1008540000100240001C024080B483B000AF034685
:10086400FB710B46BB7113467B717B79012B55D110
:10087400FB79052B00F2AC8001A252F823F000BFF3
:100884009D080008B3080008C9080008DF0800082C
:10089400F50800080B090008524B5B69BA7901217D
:1008A40001FA02F211464F4A0B43536193E04E4B57
:1008B4005B69BA79012101FA02F211464A4A0B43F3
:1008C400536188E0494B1B68BA79012101FA02F2AD
:1008D4001146464A0B4313607DE0454B5B69BA7988
:1008E400012101FA02F21146414A0B43536172E0BD
:1008F400404B5B69BA79012101FA02F211463D4A83
:100904000B43536167E03C4B5B69BA79012101FAFF
:1009140002F21146384A0B4353615CE0FB79052B24
:1009240058D801A252F823F0450900085D090008CF
:10093400750900088D090008A5090008BD0900080B
:10094400284B5B69BA79012101FA02F2D2431146BC
:10095400244A0B4053613EE0234B5B69BA79012181
:1009640001FA02F2D24311461F4A0B40536132E0AE
:10097400224B5B69BA79012101FA02F2D243114692
:100984001E4A0B40536126E0194B5B69BA79012179
:1009940001FA02F2D2431146154A0B4053611AE0A0
:1009A400144B5B69BA79012101FA02F2D243114670
:1009B400104A0B4053610EE00F4B5B69BA79012179
:1009C40001FA02F2D24311460B4A0B40536102E092
:1009D40000BF00E000BF00BF0C37BD465DF8047BDC
:1009E400704700BF000002400004024014080240A7
:1009F400000C024000100240001C024000080240AB
:100A040090B482B000AF0346FB710C4AFB795B09DA
:100A1400D8B2034652F82330FA7902F01F020121BA
:100A240001FA02F21446054A0146234342F82130F2
:100A340000BF0837BD4690BC704700BF00E100E02E
:100A440080B483B000AF0346FB71FB791B0243F013
:100A5400BF6343F400331A46054B1A60054A044B3E
:100A64001B68136000BF0C37BD465DF8047B7047FC
:100A7400240000200CED00E080B485B000AF0346F4
:100A8400FB710B46BB7113467B710023FB73214B37
:100A94001B68033B042B2ED801A252F823F000BF9D
:100AA400B90A0008BF0A0008D10A0008E30A0008CE
:100AB400F50A0008BB79FB731DE0BB795B005AB2F1
:100AC40097F9053013435BB2FB7314E0BB799B00C9
:100AD4005AB297F9053013435BB2FB730BE0BB7951
:100AE400DB005AB297F9053013435BB2FB7302E0A3
:100AF4007B79FB7300BF0849FB79FA7B1201D2B200
:100B04000B4483F8002300BF1437BD465DF8047B13
:100B1400704700BF2400002000E100E080B400AF73
:100B24000B4B1B680A4A23F480231360084B9B6811
:100B3400074A43F001039360054B1B68044A43F4DE
:100B44008033136000BFBD465DF8047B704700BF6F
:100B54000038024080B483B000AF03460A46FB71FC
:100B64001346BB71FB79032B36D801A252F823F04C
:100B7400850B00089B0B0008B10B0008C70B00088D
:100B8400194B1B6BBA79012101FA02F21146164A7C
:100B94000B43136321E0144B5B6BBA79012101FA17
:100BA40002F21146104A0B43536316E00E4B1B6CC2
:100BB400BA79012101FA02F211460B4A0B4313647C
:100BC4000BE0094B5B6CBA79012101FA02F2114680
:100BD400054A0B43536400E000BF00BF0C37BD4619
:100BE4005DF8047B704700BF0038024080B500AF59
:100BF400024B1B68984700BF80BD00BF280000203F
:100C040080B485B000AF78600023FB600CE0002363
:100C1400BB6002E0BB680133BB60BB68B3F57A7F9D
:100C2400F8D3FB680133FB60FB687A689A42EED81C
:100C340000BF00BF1437BD465DF8047B704780B524
:100C440000AF00210020FFF79BFD034603F00103E2
:100C5400002B0ED0012200210120FFF7FDFD01220F
:100C640001210120FFF7F8FD012202210120FFF7F5
:100C7400F3FD41F28830FFF7C3FF00220021012079
:100C8400FFF7EAFD002201210120FFF7E5FD002224
:100C940002210120FFF7E0FD00BF80BD80B500AF59
:100CA400FFF73CFF00210020FFF754FF0121002043
:100CB400FFF750FF0E210320FFF74CFF0022002115
:100CC4000020FFF775FC012200210020FFF7E8FC5B
:100CD400012200210120FFF76BFC012201210120E8
:100CE400FFF766FC012202210120FFF761FC0620C8
:100CF400FFF786FE0520FFF7A3FE00220021062051
:100D0400FFF7BAFE0020FFF763FA00210020FFF787
:100D140077FA00210020FFF7B9FA02490020FFF713
:100D240005FCFEE7430C000880B400AFFEE780B486
:100D340000AFFEE780B400AFFEE780B400AFFEE78B
:100D440080B400AFFEE780B400AF00BFBD465DF8DD
:100D5400047B704780B400AF00BFBD465DF8047BE0
:100D6400704780B400AF00BFBD465DF8047B704798
:100D740080B400AF064BD3F88830054A43F47003BF
:100D8400C2F8883000BFBD465DF8047B704700BFE1
:100D940000ED00E0DFF834D00D480E490E4A002380
:100DA40002E0D458C4500433C4188C42F9D30B4A1B
:100DB4000B4C002301E013600432A242FBD3FFF783
:100DC400D7FF00F011F8FFF769FF7047000001201A
:100DD4000000002000000020540E00080000002045
:100DE4002C000020FEE7000070B50D4D0D4C641B77
:100DF400A4100026A64209D10B4D0C4C00F018F8A3
:100E0400641BA4100026A64205D170BD55F8043B0E
:100E140098470136EEE755F8043B98470136F2E768
:100E24004C0E00084C0E00084C0E0008500E000832
:100E3400F8B500BFF8BC08BC9E467047F8B500BFC3
:080E4400F8BC08BC9E46704793
:040E4C00B9010008E0
:040E50009501000800
:0400000508000D9949
:00000001FF
